:100000000C945C000C9484000C9484000C94840088
:100010000C9484000C9484000C9484000C94840050
:100020000C9484000C9484000C9484000C94840040
:100030000C9484000C9484000C9484000C94840030
:100040000C94C9030C9484000C94D5050C94840082
:100050000C9484000C9484000C9484000C94840010
:100060000C9484000C948400000024272A000025AE
:10007000282B000023262904040404040404040299
:100080000202020202030303030303010204081035
:100090002040800102040810200102040810200002
:1000A0000000070002010000030406000000000039
:1000B000000000007E01210211241FBECFEFD4E01A
:1000C000DEBFCDBF11E0A0E0B1E0ECEFFCE002C08C
:1000D00005900D92AE30B107D9F711E0AEE0B1E076
:1000E00001C01D92A03AB107E1F710E0C8EBD0E0E3
:1000F00004C02297FE010E947806C43BD107C9F7CD
:100100000E941A020C947C060C9400000F931F931B
:100110008B0161E0802F1AD460E0802F35D41F91CD
:100120000F9108950F931F938B0160E0802F0ED4E1
:1001300061E0802F29D41F910F910895FF920F93B2
:100140001F93CF93DF93EC0168817981EBDF6A81A4
:100150007B81CE01E7DF82E390E0B0D388815FD47A
:100160000197E1F385E090E0A9D3888158D4892BE9
:10017000E1F3FF2400E011E0888151D40197E1F31D
:100180008A814DD4019709F4F12A888148D4892BBA
:10019000E1F30F5F083010F4110FEECF88813FD4E8
:1001A0000197E1F388813BD4892BE1F3888137D42F
:1001B0000197E1F3888133D4892BE1F36881798158
:1001C000CE01A4DF8F2D9927DF91CF911F910F9141
:1001D000FF900895FF920F931F93CF93DF93EC014D
:1001E000162F6A817B819EDF68817981CE019ADF3B
:1001F0008CE291E063D368817981CE0187DF8CE264
:1002000091E05CD36A817B81CE0180DF8AE090E05F
:1002100055D368817981CE0185DF888100D401972B
:10022000E1F300E081E0F82E6A817B8110FF03C0DA
:10023000CE0178DF02C0CE0169DF8881F0D3892B3F
:10024000E1F38881ECD30197E1F3812F81708F2551
:100250000F5F083019F0F82E1695E6CF6A817B8182
:10026000882319F0CE015EDF02C0CE014FDF888106
:10027000D6D3892BE1F38881D2D30197E1F36A8148
:100280007B81CE014FDF82E390E018D38881C7D312
:100290000197E1F38881C3D3892BE1F38A81BFD32E
:1002A000892BC1F368817981CE0130DFDF91CF9155
:1002B0001F910F91FF9008950F931F938C01FC01E4
:1002C00071836083538342832DDFF80162817381E0
:1002D000C80128DF1F910F9108950F931F938C0180
:1002E000FC0171836083538342831CDFF8016281C8
:1002F0007381C80117DF1F910F91089545E050E009
:1003000066E070E08EE091E00E945C0108954F92FB
:100310005F926F927F928F929F92AF92BF92CF9295
:10032000DF92EF92FF920F931F939EE0892E91E050
:10033000992E6BEEC4010E94EA00C4010E949E0047
:10034000C4010E949E00E82EC4010E949E00A82EB7
:10035000C4010E949E00682EFF24E7FCF0940F2D3C
:100360001F2D82E1482E81E0582E22E030E0B801B6
:10037000A701C2010E94A90360E071E0C2010E94CE
:100380004A02BB24A7FCB094CB2CDB2C2AE030E043
:10039000B601A501C2010E94A90364E071E0C20197
:1003A0000E944A02772467FC7094872C972C2AE0DD
:1003B00030E0B401A301C2010E94A903C2010E945E
:1003C00062021F910F91FF90EF90DF90CF90BF904E
:1003D000AF909F908F907F906F905F904F90089517
:1003E0000F931F930EE011E06FEFC8010E94EA0027
:1003F000C8010E949E00C8010E949E00C8010E9480
:100400009E0060EFC8010E94EA00C8010E949E00A1
:1004100084E690E00E945E041F910F91089540E8E9
:1004200055E260E070E082E191E00E9435020E94B6
:10043000F00108950E946C040E940F020E9487013F
:10044000FDCF8CE091E09093130180931201089509
:10045000862F0E94940508950E94CC0508950E945D
:10046000AD0508950E949C050895CB01BA010E9434
:100470005B050895DC01ED91FC910190F081E02D88
:1004800009950895DC01ED91FC910190F081E02D3A
:10049000099508950F931F93CF93DF938C01EB0180
:1004A00009C02196D801ED91FC910190F081E02DD9
:1004B000C801099568816623A1F7DF91CF911F914B
:1004C0000F9108950F931F938C01DC01ED91FC9126
:1004D0000190F081E02D6DE00995D801ED91FC913E
:1004E0000190F081E02D6AE0C80109951F910F91FC
:1004F00008950F931F938C01DC01ED91FC91019005
:10050000F081E02D0995C8010E9462021F910F91B0
:1005100008950F931F938C010E944A02C8010E9404
:1005200062021F910F9108950F931F938C01DC01BC
:10053000ED91FC910190F081E02D0995C8010E9498
:1005400062021F910F9108952F923F924F925F92F6
:100550006F927F928F929F92AF92BF92CF92DF92D3
:10056000EF92FF920F931F93DF93CF93CDB7DEB738
:10057000A0970FB6F894DEBF0FBECDBF1C016A0175
:100580007B01411551056105710549F4DC01ED91CF
:10059000FC910190F081E02D60E3099554C088241E
:1005A00099245401422E55246624772401E010E05A
:1005B0000C0F1D1F080D191DC701B601A3019201E3
:1005C0000E942506F80160830894811C911CA11CDF
:1005D000B11CC701B601A30192010E942506C90101
:1005E000DA016C017D01C114D104E104F104F1F6DA
:1005F00081E0E82EF12CEC0EFD1EE80CF91C3E010A
:100600000894611C711CD501C4010197A109B109AD
:100610006C01C818D90814C0F601EE0DFF1D6081E9
:100620006A3010F4605D01C0695CD101ED91FC910C
:100630000190F081E02DC10109950894E108F108CD
:100640006E147F0449F7A0960FB6F894DEBF0FBE74
:10065000CDBFCF91DF911F910F91FF90EF90DF9071
:10066000CF90BF90AF909F908F907F906F905F9052
:100670004F903F902F9008952AE00E94A402089581
:100680000F931F938C010E943C03C8010E946202D9
:100690001F910F910895AB0160E070E00E943C0350
:1006A00008950F931F938C01AB0160E070E00E94EE
:1006B0003C03C8010E9462021F910F910895EF92BE
:1006C000FF920F931F93CF93DF93EC017A018B017D
:1006D00077FF0FC0E881F9810190F081E02D6DE294
:1006E000099510950095F094E094E11CF11C011D12
:1006F000111D2AE0B801A701CE010E94A402DF91DA
:10070000CF911F910F91FF90EF9008950F931F933A
:100710008C010E945F03C8010E9462021F910F9129
:100720000895AB01662757FD6095762F0E945F0301
:1007300008950F931F938C01AB01662757FD6095B9
:10074000762F0E945F03C8010E9462021F910F91E1
:100750000895DC012115310541F4ED91FC910190E2
:10076000F081E02D642F099508952A30310519F4A0
:100770000E945F0308950E94A40208950F931F939F
:100780008C010E94A903C8010E9462021F910F916F
:1007900008951F920F920FB60F9211242F938F93EB
:1007A0009F93AF93BF938091140190911501A091F5
:1007B0001601B09117018050904CAF4FBF4F8093FE
:1007C000140190931501A0931601B093170127C04F
:1007D0008091140190911501A0911601B09117011B
:1007E00080589E43A040B04080931401909315011F
:1007F000A0931601B09317018091180190911901EF
:10080000A0911A01B0911B010196A11DB11D809309
:10081000180190931901A0931A01B0931B018091C4
:10082000140190911501A0911601B0911701815802
:100830009E43A040B04060F6BF91AF919F918F91D1
:100840002F910F900FBE0F901F9018958FB7F894AF
:10085000209118013091190140911A0150911B010A
:100860008FBFB901CA010895EF92FF920F931F93B2
:100870007B018C018FB7F8944091180150911901B8
:1008800060911A0170911B018FBF2FB7F89480916E
:10089000180190911901A0911A01B0911B012FBF6D
:1008A000841B950BA60BB70B8E159F05A007B107F0
:1008B00060F31F910F91FF90EF900895019759F009
:1008C000FC01EE0FFF1FEE0FFF1F32978FB7F8945A
:1008D0003197F1F78FBF0895789484B5826084BD15
:1008E00084B5816084BD85B5826085BD85B5816034
:1008F00085BDEEE6F0E0808181608083E1E8F0E094
:10090000808182608083808181608083E0E8F0E084
:10091000808181608083E1EBF0E08081846080836E
:10092000E0EBF0E0808181608083EAE7F0E08081A5
:100930008460808380818260808380818160808305
:100940008081806880831092C1000895282F30E054
:10095000C90185579F4FFC01949129583F4FF901D8
:100960008491882381F0E82FF0E0E859FF4FE4916B
:10097000F0E0662329F4808190958923808308958F
:100980008081892B80830895482F50E0CA018156C9
:100990009F4FFC012491CA0185579F4FFC01949100
:1009A00049585F4FFA0134913323C1F1222331F1C9
:1009B000233021F4809180008F7705C0243031F4FA
:1009C000809180008F7D8093800018C0213019F4C1
:1009D00084B58F7704C0223021F484B58F7D84BD27
:1009E0000DC0263021F48091B0008F7705C02730EC
:1009F00029F48091B0008F7D8093B000E32FF0E068
:100A0000E359FF4FE491F0E0662329F4808190954B
:100A10008923808308958081892B80830895482FBE
:100A200050E0CA0181569F4FFC012491CA018557AD
:100A30009F4FFC01949149585F4FFA013491332341
:100A400019F420E030E035C0222331F1233021F4C5
:100A5000809180008F7705C0243031F48091800030
:100A60008F7D8093800018C0213019F484B58F7772
:100A700004C0223021F484B58F7D84BD0DC02630A2
:100A800021F48091B0008F7705C0273029F4809140
:100A9000B0008F7D8093B000E32FF0E0EE58FF4F61
:100AA000E491F0E0808120E030E0892311F021E042
:100AB00030E0C9010895EF92FF920F931F937B01DD
:100AC0008C0122E030E040E050E00E944706205CCC
:100AD0003D4B404F5F4FCA01B901A80197010E94E9
:100AE0004706C901DA010197A109B109292F3A2F57
:100AF0004B2F552747FD5A950196A11DB11D2093F7
:100B0000C50081508093C400E1ECF0E080818061F9
:100B100080838081886080838081806880831F914A
:100B20000F91FF90EF900895982F8091C00085FF5E
:100B3000FCCF9093C600089580911C0190911D01F7
:100B400080589F4F20911E0130911F01821B930BF3
:100B500060E870E00E941206089540911E015091D5
:100B60001F0180911C0190911D018417950719F4B4
:100B70002FEF3FEF0FC0FA01E05EFE4F2081CA0168
:100B8000019660E870E00E94120690931F01809326
:100B90001E0130E0C901089580911E0190911F014E
:100BA00090931D0180931C0108951F920F920FB620
:100BB0000F9211242F933F934F935F936F937F93E3
:100BC0008F939F93AF93BF93EF93FF934091C60092
:100BD000E0911C01F0911D01CF01019660E870E0E9
:100BE0000E9412069C0180911E0190911F012817FE
:100BF000390739F0E05EFE4F408330931D012093AA
:100C00001C01FF91EF91BF91AF919F918F917F91C7
:100C10006F915F914F913F912F910F900FBE0F9069
:100C20001F90189597FB092E07260AD077FD04D050
:100C300049D006D000201AF4709561957F4F089531
:100C4000F6F7909581959F4F0895A1E21A2EAA1B61
:100C5000BB1BFD010DC0AA1FBB1FEE1FFF1FA2176C
:100C6000B307E407F50720F0A21BB30BE40BF50B69
:100C7000661F771F881F991F1A9469F760957095F2
:100C8000809590959B01AC01BD01CF01089597FB24
:100C9000092E05260ED057FD04D0D7DF0AD0001C40
:100CA00038F450954095309521953F4F4F4F5F4F09
:100CB0000895F6F790958095709561957F4F8F4FC9
:100CC0009F4F0895AA1BBB1B51E107C0AA1FBB1F62
:100CD000A617B70710F0A61BB70B881F991F5A95C8
:100CE000A9F780959095BC01CD010895EE0FFF1FE7
:0C0CF0000590F491E02D0994F894FFCFDA
:0E0CFC0009583D0009593D0000000000280283
:00000001FF
